:02000000172ABD
:06000600000000000800EC
:10000C000F3083120313FC004730FD00FD0B0C284E
:0A001C00FC0B0C2800000000080097
:0E002600213083120313FD00FD0B1728080084
:1000340083120313F801F9011030FC00710DF80D5F
:10004400F90D7408F8027508031C750FF9020318FA
:1000540032287408F80775080318750FF907031098
:0A006400F00DF10DFC0B2028080040
:10006E0083160313DF1B3E2883128611402883124A
:10007E00861583165F1B46288312061148288312A5
:10008E0006158316DF1A4E28831286105028831207
:10009E00861483165F1A5628831206105828831268
:1000AE0006146F185C2806165D28061286160320A5
:1000BE0086128316DF19662883128611682883122A
:1000CE00861583165F196E28831206117028831207
:1000DE0006158316DF187628831286107828831269
:1000EE00861483165F187E288312061080288312CA
:1000FE0006146F1884280616852806128616032005
:0E010E0086126F1C8C2806208D2813200800F6
:0E011C008316031330088A002F0882000800A3
:10012A0083160313DD0105305D020318A3285D0859
:10013A005C07840020308000DD0A98285D085C078F
:10014A0084008001DD035D085C07DE000A30F400EC
:10015A00F5015A08F0005B08F1001A207808F0004F
:10016A007908F1003030F00783165E0884007008C1
:10017A0080000A30F400F5015A08F0005B08F1002B
:10018A001A2070088316DA007108DB000030710645
:10019A00031DD12800307006031DD428D628DD039C
:0401AA00A828080079
:1001AE00831203136F1083165A08DF0037206F1463
:0201BE00080037
:1001C00083160313D601D7015108D8005208D9006D
:1001D00080305206F00080307002031DF12800309C
:1001E00051020318FF280130D6000030D700510813
:1001F000003CD8005208031C013ED901D90258081E
:10020000DA005908DB005308DC0095200630D400E2
:100210000030D5005508003C031D10295408003C4F
:1002200003182B2954085307F20001305402F00040
:100230000030031C013E5502F10070085307840092
:100240000008F00072088400700880000130D402B9
:10025000031CD5030A295308840020308000560867
:10026000570403194929D401D501540853078400C0
:100270000008203A031D4029D40A0319D50A35295C
:100280000130D402031CD5035408530784002D30D9
:0402900080000800E2
:10029400831603178C1C502900004A2903135108A4
:1002A400831203178D008316031352088312031756
:1002B4008C0083168C130C150B08F0008B1355302F
:1002C4008D00AA308D008C14F01B6A298B136B29C6
:0602D4008B170C1108005D
:1002DA007F29803083160313D1009229C030D100C0
:1002EA0092299430D1009229D430D10092298030B9
:1002FA00D1009229831603135108013A03196E2972
:10030A005108023A031973295108033A0319762945
:10031A005108043A031979297C295203F00051083B
:10032A00F0077008D1007008DF0037206F108316BD
:10033A00D40154085307840000080319AD2954084E
:10034A00530784000008DA00D7208316D40A9E29AE
:06035A0083126F1408007D
:1003600083160313861206120610861006118611D4
:1003700083128612061286110611861006100620B8
:1003800006200620861406148616032086120620F0
:100390008616032086120620861603208612062063
:1003A0000610861603208612062086160320861263
:1003B00086108615861603208612062086110614DE
:1003C0008616032086120610861603208612062043
:1003D000861603208612061486160320861206202F
:1003E0000610861603208612861506158614061436
:0C03F00086160320861206206F140800F9
:1003FC00831603135108831203178D0083168C1375
:0A040C000C1483120C08F000080025
:100416008E208A110A128000840AAF0A0319B00AD4
:08042600F003031D0B2A08007E
:10042E000A2483160313CD01CE01CF01D001013072
:10043E00880083128801B02101308316DF00372037
:10044E000C308316DF00372001308316D1000130C7
:10045E00D2003530D3006D211530FB004B30FC003F
:10046E00BE30FD00FD0B392AFC0B392AFB0B392A55
:10047E000000081C422A0808003A031D472A422A97
:10048E00081C662A01308316DF0037200C308316D5
:10049E00DF00372001308316D1000530D20028301E
:1004AE00D3006D211530FB004B30FC00BE30FD003B
:1004BE00FD0B5F2AFC0B5F2AFB0B5F2A0000881CDA
:1004CE008C2A8316CD0A1230D1004D08D2004A2153
:1004DE0001300313DF0037200C308316DF00372086
:1004EE0001308316D1000530D2002030D3006D21AB
:1004FE001530FB004B30FC00BE30FD00FD0B852A95
:10050E00FC0B852AFB0B852A0000081DB22A8316D8
:10051E00CE0A2330D1004E08D2004A2101300313F7
:10052E00DF0037200C308316DF00372001308316B2
:10053E00D1000530D2004630D3006D211530FB00BE
:10054E004B30FC00BE30FD00FD0BAB2AFC0BAB2A82
:10055E00FB0BAB2A0000881DD82A8316CF0A343035
:10056E00D1004F08D2004A2101300313DF0037209B
:10057E000C308316DF00372001308316D100053092
:10058E00D200A030D3006D211530FB004B30FC00A3
:10059E00BE30FD00FD0BD12AFC0BD12AFB0BD12A5C
:1005AE000000081EFE2A8316D00A4530D1005008DE
:1005BE00D2004A2101300313DF0037200C3083169E
:1005CE00DF00372001308316D1000530D2006430B1
:1005DE00D3006D211530FB004B30FC00BE30FD000A
:1005EE00FD0BF72AFC0BF72AFB0BF72A0000881EDF
:1005FE00A42B12308316D100FE217008831603132C
:10060E00CD002330D100FE21700883160313CE00D7
:10061E003430D100FE21700883160313CF0045300D
:10062E00D100FE21700883160313D0000130DF00C5
:10063E00372083164D08D100D201B130D300E0200F
:10064E004E08D100D201B830D300E0204F08D100BF
:10065E00D201BF30D300E0205008D100D201C63005
:10066E00D300E0200630FB001330FC00AD30FD005F
:10067E00FD0B3F2BFC0B3F2BFB0B3F2B0000000019
:10068E000130D1000130D2006C30D3006D21013029
:10069E008316D1000430D200AB30D3006D2102306E
:1006AE008316D1000130D200A830D3006D21023064
:1006BE008316D1000430D2005F30D3006D21153087
:1006CE00FB004B30FC00BE30FD00FD0B6C2BFC0B19
:1006DE006C2BFB0B6C2B000001308316DF003720D8
:1006EE0001308316D1000130D2005430D3006D2179
:1006FE0001308316D1000430D2004F30D3006D216B
:10070E0002308316D1000130D2005730D3006D2154
:10071E0002308316D1000430D2005A30D3006D213E
:10072E001530FB004B30FC00BE30FD00FD0B9D2B49
:0E073E00FC0B9D2BFB0B9D2B0000472AA52BCF
:10081400203084004C3083120313F000AB30831675
:10082400AF000330B0000B22A030840008308312E4
:100834000313F000F7308316AF000330B0000B222F
:100844006C308400033083120313F00006308316E7
:10085400AF000430B0000B22A830840007308312AC
:100864000313F000FF308316AF000330B0000B22F7
:0208740008007A
:1007560073347534633463346534733473340034FA
:1007660053345434413452345434203456344F3490
:0A077600543449344E344734003443
:10078000483445344C344C344F342034453476347A
:1007900065347234793456346F3474346534723459
:0207A000003423
:1007A200733475346334633465347334733432347C
:0207B200003411
:0A07B40074347834743432340034A5
:0607BE0033343A3400342C
:0607C40034343A34003425
:0A07CA00743478347434333400348E
:0A07D4007434783474343134003486
:1007DE007334753463346334653473347334003472
:1007EE007334753463346334653473347334003462
:0607FE0032343A340034ED
:080804007434783474340034BC
:06080C0031343A340034DF
:02400E004A2F37
:00000001FF
